{
  "_format": "hh-sol-artifact-1",
  "contractName": "MyEpicNFT",
  "sourceName": "contracts/MyEpicNFT.sol",
  "abi": [
    {
      "inputs": [],
      "stateMutability": "nonpayable",
      "type": "constructor"
    },
    {
      "anonymous": false,
      "inputs": [
        {
          "indexed": true,
          "internalType": "address",
          "name": "owner",
          "type": "address"
        },
        {
          "indexed": true,
          "internalType": "address",
          "name": "approved",
          "type": "address"
        },
        {
          "indexed": true,
          "internalType": "uint256",
          "name": "tokenId",
          "type": "uint256"
        }
      ],
      "name": "Approval",
      "type": "event"
    },
    {
      "anonymous": false,
      "inputs": [
        {
          "indexed": true,
          "internalType": "address",
          "name": "owner",
          "type": "address"
        },
        {
          "indexed": true,
          "internalType": "address",
          "name": "operator",
          "type": "address"
        },
        {
          "indexed": false,
          "internalType": "bool",
          "name": "approved",
          "type": "bool"
        }
      ],
      "name": "ApprovalForAll",
      "type": "event"
    },
    {
      "anonymous": false,
      "inputs": [
        {
          "indexed": true,
          "internalType": "address",
          "name": "from",
          "type": "address"
        },
        {
          "indexed": true,
          "internalType": "address",
          "name": "to",
          "type": "address"
        },
        {
          "indexed": true,
          "internalType": "uint256",
          "name": "tokenId",
          "type": "uint256"
        }
      ],
      "name": "Transfer",
      "type": "event"
    },
    {
      "inputs": [
        {
          "internalType": "address",
          "name": "to",
          "type": "address"
        },
        {
          "internalType": "uint256",
          "name": "tokenId",
          "type": "uint256"
        }
      ],
      "name": "approve",
      "outputs": [],
      "stateMutability": "nonpayable",
      "type": "function"
    },
    {
      "inputs": [
        {
          "internalType": "address",
          "name": "owner",
          "type": "address"
        }
      ],
      "name": "balanceOf",
      "outputs": [
        {
          "internalType": "uint256",
          "name": "",
          "type": "uint256"
        }
      ],
      "stateMutability": "view",
      "type": "function"
    },
    {
      "inputs": [
        {
          "internalType": "uint256",
          "name": "tokenId",
          "type": "uint256"
        }
      ],
      "name": "getApproved",
      "outputs": [
        {
          "internalType": "address",
          "name": "",
          "type": "address"
        }
      ],
      "stateMutability": "view",
      "type": "function"
    },
    {
      "inputs": [
        {
          "internalType": "address",
          "name": "owner",
          "type": "address"
        },
        {
          "internalType": "address",
          "name": "operator",
          "type": "address"
        }
      ],
      "name": "isApprovedForAll",
      "outputs": [
        {
          "internalType": "bool",
          "name": "",
          "type": "bool"
        }
      ],
      "stateMutability": "view",
      "type": "function"
    },
    {
      "inputs": [],
      "name": "makeAnEpicNFT",
      "outputs": [],
      "stateMutability": "nonpayable",
      "type": "function"
    },
    {
      "inputs": [],
      "name": "name",
      "outputs": [
        {
          "internalType": "string",
          "name": "",
          "type": "string"
        }
      ],
      "stateMutability": "view",
      "type": "function"
    },
    {
      "inputs": [
        {
          "internalType": "uint256",
          "name": "tokenId",
          "type": "uint256"
        }
      ],
      "name": "ownerOf",
      "outputs": [
        {
          "internalType": "address",
          "name": "",
          "type": "address"
        }
      ],
      "stateMutability": "view",
      "type": "function"
    },
    {
      "inputs": [
        {
          "internalType": "uint256",
          "name": "tokenId",
          "type": "uint256"
        }
      ],
      "name": "pickRandomFirstWord",
      "outputs": [
        {
          "internalType": "string",
          "name": "",
          "type": "string"
        }
      ],
      "stateMutability": "view",
      "type": "function"
    },
    {
      "inputs": [
        {
          "internalType": "uint256",
          "name": "tokenId",
          "type": "uint256"
        }
      ],
      "name": "pickRandomSecondWord",
      "outputs": [
        {
          "internalType": "string",
          "name": "",
          "type": "string"
        }
      ],
      "stateMutability": "view",
      "type": "function"
    },
    {
      "inputs": [
        {
          "internalType": "uint256",
          "name": "tokenId",
          "type": "uint256"
        }
      ],
      "name": "pickRandomThirdWord",
      "outputs": [
        {
          "internalType": "string",
          "name": "",
          "type": "string"
        }
      ],
      "stateMutability": "view",
      "type": "function"
    },
    {
      "inputs": [
        {
          "internalType": "address",
          "name": "from",
          "type": "address"
        },
        {
          "internalType": "address",
          "name": "to",
          "type": "address"
        },
        {
          "internalType": "uint256",
          "name": "tokenId",
          "type": "uint256"
        }
      ],
      "name": "safeTransferFrom",
      "outputs": [],
      "stateMutability": "nonpayable",
      "type": "function"
    },
    {
      "inputs": [
        {
          "internalType": "address",
          "name": "from",
          "type": "address"
        },
        {
          "internalType": "address",
          "name": "to",
          "type": "address"
        },
        {
          "internalType": "uint256",
          "name": "tokenId",
          "type": "uint256"
        },
        {
          "internalType": "bytes",
          "name": "_data",
          "type": "bytes"
        }
      ],
      "name": "safeTransferFrom",
      "outputs": [],
      "stateMutability": "nonpayable",
      "type": "function"
    },
    {
      "inputs": [
        {
          "internalType": "address",
          "name": "operator",
          "type": "address"
        },
        {
          "internalType": "bool",
          "name": "approved",
          "type": "bool"
        }
      ],
      "name": "setApprovalForAll",
      "outputs": [],
      "stateMutability": "nonpayable",
      "type": "function"
    },
    {
      "inputs": [
        {
          "internalType": "bytes4",
          "name": "interfaceId",
          "type": "bytes4"
        }
      ],
      "name": "supportsInterface",
      "outputs": [
        {
          "internalType": "bool",
          "name": "",
          "type": "bool"
        }
      ],
      "stateMutability": "view",
      "type": "function"
    },
    {
      "inputs": [],
      "name": "symbol",
      "outputs": [
        {
          "internalType": "string",
          "name": "",
          "type": "string"
        }
      ],
      "stateMutability": "view",
      "type": "function"
    },
    {
      "inputs": [
        {
          "internalType": "uint256",
          "name": "tokenId",
          "type": "uint256"
        }
      ],
      "name": "tokenURI",
      "outputs": [
        {
          "internalType": "string",
          "name": "",
          "type": "string"
        }
      ],
      "stateMutability": "view",
      "type": "function"
    },
    {
      "inputs": [
        {
          "internalType": "address",
          "name": "from",
          "type": "address"
        },
        {
          "internalType": "address",
          "name": "to",
          "type": "address"
        },
        {
          "internalType": "uint256",
          "name": "tokenId",
          "type": "uint256"
        }
      ],
      "name": "transferFrom",
      "outputs": [],
      "stateMutability": "nonpayable",
      "type": "function"
    }
  ],
  "bytecode": "0x608060405260405180610160016040528061012f81526020016200419561012f913960089080519060200190620000389291906200067e565b506040518060c001604052806040518060400160405280600781526020017f42617468696e670000000000000000000000000000000000000000000000000081525081526020016040518060400160405280600681526020017f466c79696e67000000000000000000000000000000000000000000000000000081525081526020016040518060400160405280600681526020017f446976696e67000000000000000000000000000000000000000000000000000081525081526020016040518060400160405280600781526020017f436f6f6b696e670000000000000000000000000000000000000000000000000081525081526020016040518060400160405280600681526020017f42616b696e67000000000000000000000000000000000000000000000000000081525081526020016040518060400160405280600881526020017f427265616b696e670000000000000000000000000000000000000000000000008152508152506009906006620001b69291906200070f565b506040518060c001604052806040518060400160405280600181526020017f210000000000000000000000000000000000000000000000000000000000000081525081526020016040518060400160405280600181526020017f3f0000000000000000000000000000000000000000000000000000000000000081525081526020016040518060400160405280600181526020017f260000000000000000000000000000000000000000000000000000000000000081525081526020016040518060400160405280600181526020017f230000000000000000000000000000000000000000000000000000000000000081525081526020016040518060400160405280600181526020017f240000000000000000000000000000000000000000000000000000000000000081525081526020016040518060400160405280600181526020017f2500000000000000000000000000000000000000000000000000000000000000815250815250600a906006620003349291906200070f565b506040518060c001604052806040518060400160405280600481526020017f426561720000000000000000000000000000000000000000000000000000000081525081526020016040518060400160405280600781526020017f53656167756c6c0000000000000000000000000000000000000000000000000081525081526020016040518060400160405280600481526020017f436865660000000000000000000000000000000000000000000000000000000081525081526020016040518060400160405280600781526020017f506f74686561640000000000000000000000000000000000000000000000000081525081526020016040518060400160405280600581526020017f4f7474657200000000000000000000000000000000000000000000000000000081525081526020016040518060400160405280600681526020017f526f626265720000000000000000000000000000000000000000000000000000815250815250600b906006620004b29291906200070f565b50348015620004c057600080fd5b506040518060400160405280600981526020017f5371756172654e465400000000000000000000000000000000000000000000008152506040518060400160405280600681526020017f53515541524500000000000000000000000000000000000000000000000000008152508160009080519060200190620005459291906200067e565b5080600190805190602001906200055e9291906200067e565b505050620005ac6040518060400160405280601e81526020017f54686973206973206d79204e465420636f6e74726163742e20576f6168210000815250620005b260201b620010621760201c565b62000930565b6200065281604051602401620005c9919062000844565b6040516020818303038152906040527f41304fac000000000000000000000000000000000000000000000000000000007bffffffffffffffffffffffffffffffffffffffffffffffffffffffff19166020820180517bffffffffffffffffffffffffffffffffffffffffffffffffffffffff83818316178352505050506200065560201b60201c565b50565b60008151905060006a636f6e736f6c652e6c6f679050602083016000808483855afa5050505050565b8280546200068c90620008ba565b90600052602060002090601f016020900481019282620006b05760008555620006fc565b82601f10620006cb57805160ff1916838001178555620006fc565b82800160010185558215620006fc579182015b82811115620006fb578251825591602001919060010190620006de565b5b5090506200070b919062000776565b5090565b82805482825590600052602060002090810192821562000763579160200282015b8281111562000762578251829080519060200190620007519291906200067e565b509160200191906001019062000730565b5b50905062000772919062000795565b5090565b5b808211156200079157600081600090555060010162000777565b5090565b5b80821115620007b95760008181620007af9190620007bd565b5060010162000796565b5090565b508054620007cb90620008ba565b6000825580601f10620007df575062000800565b601f016020900490600052602060002090810190620007ff919062000776565b5b50565b6000620008108262000868565b6200081c818562000873565b93506200082e81856020860162000884565b62000839816200091f565b840191505092915050565b6000602082019050818103600083015262000860818462000803565b905092915050565b600081519050919050565b600082825260208201905092915050565b60005b83811015620008a457808201518184015260208101905062000887565b83811115620008b4576000848401525b50505050565b60006002820490506001821680620008d357607f821691505b60208210811415620008ea57620008e9620008f0565b5b50919050565b7f4e487b7100000000000000000000000000000000000000000000000000000000600052602260045260246000fd5b6000601f19601f8301169050919050565b61385580620009406000396000f3fe608060405234801561001057600080fd5b506004361061010b5760003560e01c806370a08231116100a2578063b88d4fde11610071578063b88d4fde146102dc578063c575757a146102f8578063c87b56dd14610328578063de9d132f14610358578063e985e9c5146103625761010b565b806370a082311461024257806395d89b4114610272578063a22cb46514610290578063b187301f146102ac5761010b565b806323b872dd116100de57806323b872dd146101aa5780632de38d68146101c657806342842e0e146101f65780636352211e146102125761010b565b806301ffc9a71461011057806306fdde0314610140578063081812fc1461015e578063095ea7b31461018e575b600080fd5b61012a600480360381019061012591906123ef565b610392565b6040516101379190612ad0565b60405180910390f35b610148610474565b6040516101559190612aeb565b60405180910390f35b61017860048036038101906101739190612441565b610506565b6040516101859190612a69565b60405180910390f35b6101a860048036038101906101a391906123b3565b61058b565b005b6101c460048036038101906101bf91906122ad565b6106a3565b005b6101e060048036038101906101db9190612441565b610703565b6040516101ed9190612aeb565b60405180910390f35b610210600480360381019061020b91906122ad565b610821565b005b61022c60048036038101906102279190612441565b610841565b6040516102399190612a69565b60405180910390f35b61025c60048036038101906102579190612248565b6108f3565b6040516102699190612d0d565b60405180910390f35b61027a6109ab565b6040516102879190612aeb565b60405180910390f35b6102aa60048036038101906102a59190612377565b610a3d565b005b6102c660048036038101906102c19190612441565b610a53565b6040516102d39190612aeb565b60405180910390f35b6102f660048036038101906102f191906122fc565b610b71565b005b610312600480360381019061030d9190612441565b610bd3565b60405161031f9190612aeb565b60405180910390f35b610342600480360381019061033d9190612441565b610cf1565b60405161034f9190612aeb565b60405180910390f35b610360610e43565b005b61037c60048036038101906103779190612271565b610fce565b6040516103899190612ad0565b60405180910390f35b60007f80ac58cd000000000000000000000000000000000000000000000000000000007bffffffffffffffffffffffffffffffffffffffffffffffffffffffff1916827bffffffffffffffffffffffffffffffffffffffffffffffffffffffff1916148061045d57507f5b5e139f000000000000000000000000000000000000000000000000000000007bffffffffffffffffffffffffffffffffffffffffffffffffffffffff1916827bffffffffffffffffffffffffffffffffffffffffffffffffffffffff1916145b8061046d575061046c826110fb565b5b9050919050565b60606000805461048390612fa1565b80601f01602080910402602001604051908101604052809291908181526020018280546104af90612fa1565b80156104fc5780601f106104d1576101008083540402835291602001916104fc565b820191906000526020600020905b8154815290600101906020018083116104df57829003601f168201915b5050505050905090565b600061051182611165565b610550576040517f08c379a000000000000000000000000000000000000000000000000000000000815260040161054790612c8d565b60405180910390fd5b6004600083815260200190815260200160002060009054906101000a900473ffffffffffffffffffffffffffffffffffffffff169050919050565b600061059682610841565b90508073ffffffffffffffffffffffffffffffffffffffff168373ffffffffffffffffffffffffffffffffffffffff161415610607576040517f08c379a00000000000000000000000000000000000000000000000000000000081526004016105fe90612ccd565b60405180910390fd5b8073ffffffffffffffffffffffffffffffffffffffff166106266111d1565b73ffffffffffffffffffffffffffffffffffffffff16148061065557506106548161064f6111d1565b610fce565b5b610694576040517f08c379a000000000000000000000000000000000000000000000000000000000815260040161068b90612bcd565b60405180910390fd5b61069e83836111d9565b505050565b6106b46106ae6111d1565b82611292565b6106f3576040517f08c379a00000000000000000000000000000000000000000000000000000000081526004016106ea90612ced565b60405180910390fd5b6106fe838383611370565b505050565b60606000610737610713846115d7565b6040516020016107239190612a25565b604051602081830303815290604052611784565b90506009805490508161074a919061304d565b905060098181548110610786577f4e487b7100000000000000000000000000000000000000000000000000000000600052603260045260246000fd5b90600052602060002001805461079b90612fa1565b80601f01602080910402602001604051908101604052809291908181526020018280546107c790612fa1565b80156108145780601f106107e957610100808354040283529160200191610814565b820191906000526020600020905b8154815290600101906020018083116107f757829003601f168201915b5050505050915050919050565b61083c83838360405180602001604052806000815250610b71565b505050565b6000806002600084815260200190815260200160002060009054906101000a900473ffffffffffffffffffffffffffffffffffffffff169050600073ffffffffffffffffffffffffffffffffffffffff168173ffffffffffffffffffffffffffffffffffffffff1614156108ea576040517f08c379a00000000000000000000000000000000000000000000000000000000081526004016108e190612c0d565b60405180910390fd5b80915050919050565b60008073ffffffffffffffffffffffffffffffffffffffff168273ffffffffffffffffffffffffffffffffffffffff161415610964576040517f08c379a000000000000000000000000000000000000000000000000000000000815260040161095b90612bed565b60405180910390fd5b600360008373ffffffffffffffffffffffffffffffffffffffff1673ffffffffffffffffffffffffffffffffffffffff168152602001908152602001600020549050919050565b6060600180546109ba90612fa1565b80601f01602080910402602001604051908101604052809291908181526020018280546109e690612fa1565b8015610a335780601f10610a0857610100808354040283529160200191610a33565b820191906000526020600020905b815481529060010190602001808311610a1657829003601f168201915b5050505050905090565b610a4f610a486111d1565b83836117b7565b5050565b60606000610a87610a63846115d7565b604051602001610a7391906129be565b604051602081830303815290604052611784565b9050600a8054905081610a9a919061304d565b9050600a8181548110610ad6577f4e487b7100000000000000000000000000000000000000000000000000000000600052603260045260246000fd5b906000526020600020018054610aeb90612fa1565b80601f0160208091040260200160405190810160405280929190818152602001828054610b1790612fa1565b8015610b645780601f10610b3957610100808354040283529160200191610b64565b820191906000526020600020905b815481529060010190602001808311610b4757829003601f168201915b5050505050915050919050565b610b82610b7c6111d1565b83611292565b610bc1576040517f08c379a0000000000000000000000000000000000000000000000000000000008152600401610bb890612ced565b60405180910390fd5b610bcd84848484611924565b50505050565b60606000610c07610be3846115d7565b604051602001610bf3919061299c565b604051602081830303815290604052611784565b9050600b8054905081610c1a919061304d565b9050600b8181548110610c56577f4e487b7100000000000000000000000000000000000000000000000000000000600052603260045260246000fd5b906000526020600020018054610c6b90612fa1565b80601f0160208091040260200160405190810160405280929190818152602001828054610c9790612fa1565b8015610ce45780601f10610cb957610100808354040283529160200191610ce4565b820191906000526020600020905b815481529060010190602001808311610cc757829003601f168201915b5050505050915050919050565b6060610cfc82611165565b610d3b576040517f08c379a0000000000000000000000000000000000000000000000000000000008152600401610d3290612c6d565b60405180910390fd5b6000600660008481526020019081526020016000208054610d5b90612fa1565b80601f0160208091040260200160405190810160405280929190818152602001828054610d8790612fa1565b8015610dd45780601f10610da957610100808354040283529160200191610dd4565b820191906000526020600020905b815481529060010190602001808311610db757829003601f168201915b505050505090506000610de5611980565b9050600081511415610dfb578192505050610e3e565b600082511115610e30578082604051602001610e18929190612918565b60405160208183030381529060405292505050610e3e565b610e3984611997565b925050505b919050565b6000610e4f6007611a3e565b90506000610e5c82610703565b90506000610e6983610a53565b90506000610e7684610bd3565b90506000838383604051602001610e8f9392919061293c565b60405160208183030381529060405290506000600882604051602001610eb692919061296d565b60405160208183030381529060405290506000610efb83610ed684611a4c565b604051602001610ee79291906129e0565b604051602081830303815290604052611a4c565b9050600081604051602001610f109190612a47565b6040516020818303038152906040529050610f5f6040518060400160405280601581526020017f0a2d2d2d2d2d2d2d2d2d2d2d2d2d2d2d2d2d2d2d2d0000000000000000000000815250611062565b610f6881611062565b610fa66040518060400160405280601581526020017f2d2d2d2d2d2d2d2d2d2d2d2d2d2d2d2d2d2d2d2d0a0000000000000000000000815250611062565b610fb03389611c0a565b610fba8882611c28565b610fc46007611c9c565b5050505050505050565b6000600560008473ffffffffffffffffffffffffffffffffffffffff1673ffffffffffffffffffffffffffffffffffffffff16815260200190815260200160002060008373ffffffffffffffffffffffffffffffffffffffff1673ffffffffffffffffffffffffffffffffffffffff16815260200190815260200160002060009054906101000a900460ff16905092915050565b6110f8816040516024016110769190612aeb565b6040516020818303038152906040527f41304fac000000000000000000000000000000000000000000000000000000007bffffffffffffffffffffffffffffffffffffffffffffffffffffffff19166020820180517bffffffffffffffffffffffffffffffffffffffffffffffffffffffff8381831617835250505050611cb2565b50565b60007f01ffc9a7000000000000000000000000000000000000000000000000000000007bffffffffffffffffffffffffffffffffffffffffffffffffffffffff1916827bffffffffffffffffffffffffffffffffffffffffffffffffffffffff1916149050919050565b60008073ffffffffffffffffffffffffffffffffffffffff166002600084815260200190815260200160002060009054906101000a900473ffffffffffffffffffffffffffffffffffffffff1673ffffffffffffffffffffffffffffffffffffffff1614159050919050565b600033905090565b816004600083815260200190815260200160002060006101000a81548173ffffffffffffffffffffffffffffffffffffffff021916908373ffffffffffffffffffffffffffffffffffffffff160217905550808273ffffffffffffffffffffffffffffffffffffffff1661124c83610841565b73ffffffffffffffffffffffffffffffffffffffff167f8c5be1e5ebec7d5bd14f71427d1e84f3dd0314c0f7b2291e5b200ac8c7c3b92560405160405180910390a45050565b600061129d82611165565b6112dc576040517f08c379a00000000000000000000000000000000000000000000000000000000081526004016112d390612bad565b60405180910390fd5b60006112e783610841565b90508073ffffffffffffffffffffffffffffffffffffffff168473ffffffffffffffffffffffffffffffffffffffff16148061132957506113288185610fce565b5b8061136757508373ffffffffffffffffffffffffffffffffffffffff1661134f84610506565b73ffffffffffffffffffffffffffffffffffffffff16145b91505092915050565b8273ffffffffffffffffffffffffffffffffffffffff1661139082610841565b73ffffffffffffffffffffffffffffffffffffffff16146113e6576040517f08c379a00000000000000000000000000000000000000000000000000000000081526004016113dd90612b2d565b60405180910390fd5b600073ffffffffffffffffffffffffffffffffffffffff168273ffffffffffffffffffffffffffffffffffffffff161415611456576040517f08c379a000000000000000000000000000000000000000000000000000000000815260040161144d90612b6d565b60405180910390fd5b611461838383611cdb565b61146c6000826111d9565b6001600360008573ffffffffffffffffffffffffffffffffffffffff1673ffffffffffffffffffffffffffffffffffffffff16815260200190815260200160002060008282546114bc9190612eb7565b925050819055506001600360008473ffffffffffffffffffffffffffffffffffffffff1673ffffffffffffffffffffffffffffffffffffffff16815260200190815260200160002060008282546115139190612dd6565b92505081905550816002600083815260200190815260200160002060006101000a81548173ffffffffffffffffffffffffffffffffffffffff021916908373ffffffffffffffffffffffffffffffffffffffff160217905550808273ffffffffffffffffffffffffffffffffffffffff168473ffffffffffffffffffffffffffffffffffffffff167fddf252ad1be2c89b69c2b068fc378daa952ba7f163c4a11628f55a4df523b3ef60405160405180910390a46115d2838383611ce0565b505050565b6060600082141561161f576040518060400160405280600181526020017f3000000000000000000000000000000000000000000000000000000000000000815250905061177f565b600082905060005b6000821461165157808061163a90613004565b915050600a8261164a9190612e2c565b9150611627565b60008167ffffffffffffffff811115611693577f4e487b7100000000000000000000000000000000000000000000000000000000600052604160045260246000fd5b6040519080825280601f01601f1916602001820160405280156116c55781602001600182028036833780820191505090505b5090505b60008514611778576001826116de9190612eb7565b9150600a856116ed919061304d565b60306116f99190612dd6565b60f81b818381518110611735577f4e487b7100000000000000000000000000000000000000000000000000000000600052603260045260246000fd5b60200101907effffffffffffffffffffffffffffffffffffffffffffffffffffffffffffff1916908160001a905350600a856117719190612e2c565b94506116c9565b8093505050505b919050565b6000816040516020016117979190612901565b6040516020818303038152906040528051906020012060001c9050919050565b8173ffffffffffffffffffffffffffffffffffffffff168373ffffffffffffffffffffffffffffffffffffffff161415611826576040517f08c379a000000000000000000000000000000000000000000000000000000000815260040161181d90612b8d565b60405180910390fd5b80600560008573ffffffffffffffffffffffffffffffffffffffff1673ffffffffffffffffffffffffffffffffffffffff16815260200190815260200160002060008473ffffffffffffffffffffffffffffffffffffffff1673ffffffffffffffffffffffffffffffffffffffff16815260200190815260200160002060006101000a81548160ff0219169083151502179055508173ffffffffffffffffffffffffffffffffffffffff168373ffffffffffffffffffffffffffffffffffffffff167f17307eab39ab6107e8899845ad3d59bd9653f200f220920489ca2b5937696c31836040516119179190612ad0565b60405180910390a3505050565b61192f848484611370565b61193b84848484611ce5565b61197a576040517f08c379a000000000000000000000000000000000000000000000000000000000815260040161197190612b0d565b60405180910390fd5b50505050565b606060405180602001604052806000815250905090565b60606119a282611165565b6119e1576040517f08c379a00000000000000000000000000000000000000000000000000000000081526004016119d890612cad565b60405180910390fd5b60006119eb611980565b90506000815111611a0b5760405180602001604052806000815250611a36565b80611a15846115d7565b604051602001611a26929190612918565b6040516020818303038152906040525b915050919050565b600081600001549050919050565b60606000825190506000811415611a755760405180602001604052806000815250915050611c05565b60006003600283611a869190612dd6565b611a909190612e2c565b6004611a9c9190612e5d565b90506000602082611aad9190612dd6565b67ffffffffffffffff811115611aec577f4e487b7100000000000000000000000000000000000000000000000000000000600052604160045260246000fd5b6040519080825280601f01601f191660200182016040528015611b1e5781602001600182028036833780820191505090505b50905060006040518060600160405280604081526020016137e0604091399050600181016020830160005b86811015611bc25760038101905062ffffff818a015116603f8160121c168401518060081b905060ff603f83600c1c1686015116810190508060081b905060ff603f8360061c1686015116810190508060081b905060ff603f831686015116810190508060e01b90508084526004840193505050611b49565b506003860660018114611bdc5760028114611bec57611bf7565b613d3d60f01b6002830352611bf7565b603d60f81b60018303525b508484525050819450505050505b919050565b611c24828260405180602001604052806000815250611e7c565b5050565b611c3182611165565b611c70576040517f08c379a0000000000000000000000000000000000000000000000000000000008152600401611c6790612c2d565b60405180910390fd5b80600660008481526020019081526020016000209080519060200190611c979291906120d4565b505050565b6001816000016000828254019250508190555050565b60008151905060006a636f6e736f6c652e6c6f679050602083016000808483855afa5050505050565b505050565b505050565b6000611d068473ffffffffffffffffffffffffffffffffffffffff16611ed7565b15611e6f578373ffffffffffffffffffffffffffffffffffffffff1663150b7a02611d2f6111d1565b8786866040518563ffffffff1660e01b8152600401611d519493929190612a84565b602060405180830381600087803b158015611d6b57600080fd5b505af1925050508015611d9c57506040513d601f19601f82011682018060405250810190611d999190612418565b60015b611e1f573d8060008114611dcc576040519150601f19603f3d011682016040523d82523d6000602084013e611dd1565b606091505b50600081511415611e17576040517f08c379a0000000000000000000000000000000000000000000000000000000008152600401611e0e90612b0d565b60405180910390fd5b805181602001fd5b63150b7a0260e01b7bffffffffffffffffffffffffffffffffffffffffffffffffffffffff1916817bffffffffffffffffffffffffffffffffffffffffffffffffffffffff191614915050611e74565b600190505b949350505050565b611e868383611efa565b611e936000848484611ce5565b611ed2576040517f08c379a0000000000000000000000000000000000000000000000000000000008152600401611ec990612b0d565b60405180910390fd5b505050565b6000808273ffffffffffffffffffffffffffffffffffffffff163b119050919050565b600073ffffffffffffffffffffffffffffffffffffffff168273ffffffffffffffffffffffffffffffffffffffff161415611f6a576040517f08c379a0000000000000000000000000000000000000000000000000000000008152600401611f6190612c4d565b60405180910390fd5b611f7381611165565b15611fb3576040517f08c379a0000000000000000000000000000000000000000000000000000000008152600401611faa90612b4d565b60405180910390fd5b611fbf60008383611cdb565b6001600360008473ffffffffffffffffffffffffffffffffffffffff1673ffffffffffffffffffffffffffffffffffffffff168152602001908152602001600020600082825461200f9190612dd6565b92505081905550816002600083815260200190815260200160002060006101000a81548173ffffffffffffffffffffffffffffffffffffffff021916908373ffffffffffffffffffffffffffffffffffffffff160217905550808273ffffffffffffffffffffffffffffffffffffffff16600073ffffffffffffffffffffffffffffffffffffffff167fddf252ad1be2c89b69c2b068fc378daa952ba7f163c4a11628f55a4df523b3ef60405160405180910390a46120d060008383611ce0565b5050565b8280546120e090612fa1565b90600052602060002090601f0160209004810192826121025760008555612149565b82601f1061211b57805160ff1916838001178555612149565b82800160010185558215612149579182015b8281111561214857825182559160200191906001019061212d565b5b509050612156919061215a565b5090565b5b8082111561217357600081600090555060010161215b565b5090565b600061218a61218584612d4d565b612d28565b9050828152602081018484840111156121a257600080fd5b6121ad848285612f5f565b509392505050565b6000813590506121c481613783565b92915050565b6000813590506121d98161379a565b92915050565b6000813590506121ee816137b1565b92915050565b600081519050612203816137b1565b92915050565b600082601f83011261221a57600080fd5b813561222a848260208601612177565b91505092915050565b600081359050612242816137c8565b92915050565b60006020828403121561225a57600080fd5b6000612268848285016121b5565b91505092915050565b6000806040838503121561228457600080fd5b6000612292858286016121b5565b92505060206122a3858286016121b5565b9150509250929050565b6000806000606084860312156122c257600080fd5b60006122d0868287016121b5565b93505060206122e1868287016121b5565b92505060406122f286828701612233565b9150509250925092565b6000806000806080858703121561231257600080fd5b6000612320878288016121b5565b9450506020612331878288016121b5565b935050604061234287828801612233565b925050606085013567ffffffffffffffff81111561235f57600080fd5b61236b87828801612209565b91505092959194509250565b6000806040838503121561238a57600080fd5b6000612398858286016121b5565b92505060206123a9858286016121ca565b9150509250929050565b600080604083850312156123c657600080fd5b60006123d4858286016121b5565b92505060206123e585828601612233565b9150509250929050565b60006020828403121561240157600080fd5b600061240f848285016121df565b91505092915050565b60006020828403121561242a57600080fd5b6000612438848285016121f4565b91505092915050565b60006020828403121561245357600080fd5b600061246184828501612233565b91505092915050565b61247381612eeb565b82525050565b61248281612efd565b82525050565b600061249382612d93565b61249d8185612da9565b93506124ad818560208601612f6e565b6124b68161313a565b840191505092915050565b60006124cc82612d9e565b6124d68185612dba565b93506124e6818560208601612f6e565b6124ef8161313a565b840191505092915050565b600061250582612d9e565b61250f8185612dcb565b935061251f818560208601612f6e565b80840191505092915050565b6000815461253881612fa1565b6125428186612dcb565b9450600182166000811461255d576001811461256e576125a1565b60ff198316865281860193506125a1565b61257785612d7e565b60005b838110156125995781548189015260018201915060208101905061257a565b838801955050505b50505092915050565b60006125b7603283612dba565b91506125c28261314b565b604082019050919050565b60006125da602583612dba565b91506125e58261319a565b604082019050919050565b60006125fd601c83612dba565b9150612608826131e9565b602082019050919050565b6000612620600a83612dcb565b915061262b82613212565b600a82019050919050565b6000612643602483612dba565b915061264e8261323b565b604082019050919050565b6000612666601983612dba565b91506126718261328a565b602082019050919050565b6000612689606383612dcb565b9150612694826132b3565b606382019050919050565b60006126ac600b83612dcb565b91506126b78261334e565b600b82019050919050565b60006126cf602c83612dba565b91506126da82613377565b604082019050919050565b60006126f2600d83612dcb565b91506126fd826133c6565b600d82019050919050565b6000612715603883612dba565b9150612720826133ef565b604082019050919050565b6000612738602a83612dba565b91506127438261343e565b604082019050919050565b600061275b602983612dba565b91506127668261348d565b604082019050919050565b600061277e602e83612dba565b9150612789826134dc565b604082019050919050565b60006127a1600283612dcb565b91506127ac8261352b565b600282019050919050565b60006127c4602083612dba565b91506127cf82613554565b602082019050919050565b60006127e7603183612dba565b91506127f28261357d565b604082019050919050565b600061280a602c83612dba565b9150612815826135cc565b604082019050919050565b600061282d602f83612dba565b91506128388261361b565b604082019050919050565b6000612850600a83612dcb565b915061285b8261366a565b600a82019050919050565b6000612873602183612dba565b915061287e82613693565b604082019050919050565b6000612896600a83612dcb565b91506128a1826136e2565b600a82019050919050565b60006128b9601d83612dcb565b91506128c48261370b565b601d82019050919050565b60006128dc603183612dba565b91506128e782613734565b604082019050919050565b6128fb81612f55565b82525050565b600061290d82846124fa565b915081905092915050565b600061292482856124fa565b915061293082846124fa565b91508190509392505050565b600061294882866124fa565b915061295482856124fa565b915061296082846124fa565b9150819050949350505050565b6000612979828561252b565b915061298582846124fa565b9150612990826126e5565b91508190509392505050565b60006129a782612613565b91506129b382846124fa565b915081905092915050565b60006129c98261269f565b91506129d582846124fa565b915081905092915050565b60006129eb82612843565b91506129f782856124fa565b9150612a028261267c565b9150612a0e82846124fa565b9150612a1982612794565b91508190509392505050565b6000612a3082612889565b9150612a3c82846124fa565b915081905092915050565b6000612a52826128ac565b9150612a5e82846124fa565b915081905092915050565b6000602082019050612a7e600083018461246a565b92915050565b6000608082019050612a99600083018761246a565b612aa6602083018661246a565b612ab360408301856128f2565b8181036060830152612ac58184612488565b905095945050505050565b6000602082019050612ae56000830184612479565b92915050565b60006020820190508181036000830152612b0581846124c1565b905092915050565b60006020820190508181036000830152612b26816125aa565b9050919050565b60006020820190508181036000830152612b46816125cd565b9050919050565b60006020820190508181036000830152612b66816125f0565b9050919050565b60006020820190508181036000830152612b8681612636565b9050919050565b60006020820190508181036000830152612ba681612659565b9050919050565b60006020820190508181036000830152612bc6816126c2565b9050919050565b60006020820190508181036000830152612be681612708565b9050919050565b60006020820190508181036000830152612c068161272b565b9050919050565b60006020820190508181036000830152612c268161274e565b9050919050565b60006020820190508181036000830152612c4681612771565b9050919050565b60006020820190508181036000830152612c66816127b7565b9050919050565b60006020820190508181036000830152612c86816127da565b9050919050565b60006020820190508181036000830152612ca6816127fd565b9050919050565b60006020820190508181036000830152612cc681612820565b9050919050565b60006020820190508181036000830152612ce681612866565b9050919050565b60006020820190508181036000830152612d06816128cf565b9050919050565b6000602082019050612d2260008301846128f2565b92915050565b6000612d32612d43565b9050612d3e8282612fd3565b919050565b6000604051905090565b600067ffffffffffffffff821115612d6857612d6761310b565b5b612d718261313a565b9050602081019050919050565b60008190508160005260206000209050919050565b600081519050919050565b600081519050919050565b600082825260208201905092915050565b600082825260208201905092915050565b600081905092915050565b6000612de182612f55565b9150612dec83612f55565b9250827fffffffffffffffffffffffffffffffffffffffffffffffffffffffffffffffff03821115612e2157612e2061307e565b5b828201905092915050565b6000612e3782612f55565b9150612e4283612f55565b925082612e5257612e516130ad565b5b828204905092915050565b6000612e6882612f55565b9150612e7383612f55565b9250817fffffffffffffffffffffffffffffffffffffffffffffffffffffffffffffffff0483118215151615612eac57612eab61307e565b5b828202905092915050565b6000612ec282612f55565b9150612ecd83612f55565b925082821015612ee057612edf61307e565b5b828203905092915050565b6000612ef682612f35565b9050919050565b60008115159050919050565b60007fffffffff0000000000000000000000000000000000000000000000000000000082169050919050565b600073ffffffffffffffffffffffffffffffffffffffff82169050919050565b6000819050919050565b82818337600083830152505050565b60005b83811015612f8c578082015181840152602081019050612f71565b83811115612f9b576000848401525b50505050565b60006002820490506001821680612fb957607f821691505b60208210811415612fcd57612fcc6130dc565b5b50919050565b612fdc8261313a565b810181811067ffffffffffffffff82111715612ffb57612ffa61310b565b5b80604052505050565b600061300f82612f55565b91507fffffffffffffffffffffffffffffffffffffffffffffffffffffffffffffffff8214156130425761304161307e565b5b600182019050919050565b600061305882612f55565b915061306383612f55565b925082613073576130726130ad565b5b828206905092915050565b7f4e487b7100000000000000000000000000000000000000000000000000000000600052601160045260246000fd5b7f4e487b7100000000000000000000000000000000000000000000000000000000600052601260045260246000fd5b7f4e487b7100000000000000000000000000000000000000000000000000000000600052602260045260246000fd5b7f4e487b7100000000000000000000000000000000000000000000000000000000600052604160045260246000fd5b6000601f19601f8301169050919050565b7f4552433732313a207472616e7366657220746f206e6f6e20455243373231526560008201527f63656976657220696d706c656d656e7465720000000000000000000000000000602082015250565b7f4552433732313a207472616e736665722066726f6d20696e636f72726563742060008201527f6f776e6572000000000000000000000000000000000000000000000000000000602082015250565b7f4552433732313a20746f6b656e20616c7265616479206d696e74656400000000600082015250565b7f54484952445f574f524400000000000000000000000000000000000000000000600082015250565b7f4552433732313a207472616e7366657220746f20746865207a65726f2061646460008201527f7265737300000000000000000000000000000000000000000000000000000000602082015250565b7f4552433732313a20617070726f766520746f2063616c6c657200000000000000600082015250565b7f222c20226465736372697074696f6e223a20224120686967686c79206163636c60008201527f61696d656420636f6c6c656374696f6e206f6620737175617265732e222c202260208201527f696d616765223a2022646174613a696d6167652f7376672b786d6c3b6261736560408201527f36342c0000000000000000000000000000000000000000000000000000000000606082015250565b7f5345434f4e445f574f5244000000000000000000000000000000000000000000600082015250565b7f4552433732313a206f70657261746f7220717565727920666f72206e6f6e657860008201527f697374656e7420746f6b656e0000000000000000000000000000000000000000602082015250565b7f3c2f746578743e3c2f7376673e00000000000000000000000000000000000000600082015250565b7f4552433732313a20617070726f76652063616c6c6572206973206e6f74206f7760008201527f6e6572206e6f7220617070726f76656420666f7220616c6c0000000000000000602082015250565b7f4552433732313a2062616c616e636520717565727920666f7220746865207a6560008201527f726f206164647265737300000000000000000000000000000000000000000000602082015250565b7f4552433732313a206f776e657220717565727920666f72206e6f6e657869737460008201527f656e7420746f6b656e0000000000000000000000000000000000000000000000602082015250565b7f45524337323155524953746f726167653a2055524920736574206f66206e6f6e60008201527f6578697374656e7420746f6b656e000000000000000000000000000000000000602082015250565b7f227d000000000000000000000000000000000000000000000000000000000000600082015250565b7f4552433732313a206d696e7420746f20746865207a65726f2061646472657373600082015250565b7f45524337323155524953746f726167653a2055524920717565727920666f722060008201527f6e6f6e6578697374656e7420746f6b656e000000000000000000000000000000602082015250565b7f4552433732313a20617070726f76656420717565727920666f72206e6f6e657860008201527f697374656e7420746f6b656e0000000000000000000000000000000000000000602082015250565b7f4552433732314d657461646174613a2055524920717565727920666f72206e6f60008201527f6e6578697374656e7420746f6b656e0000000000000000000000000000000000602082015250565b7f7b226e616d65223a202200000000000000000000000000000000000000000000600082015250565b7f4552433732313a20617070726f76616c20746f2063757272656e74206f776e6560008201527f7200000000000000000000000000000000000000000000000000000000000000602082015250565b7f46495253545f574f524400000000000000000000000000000000000000000000600082015250565b7f646174613a6170706c69636174696f6e2f6a736f6e3b6261736536342c000000600082015250565b7f4552433732313a207472616e736665722063616c6c6572206973206e6f74206f60008201527f776e6572206e6f7220617070726f766564000000000000000000000000000000602082015250565b61378c81612eeb565b811461379757600080fd5b50565b6137a381612efd565b81146137ae57600080fd5b50565b6137ba81612f09565b81146137c557600080fd5b50565b6137d181612f55565b81146137dc57600080fd5b5056fe4142434445464748494a4b4c4d4e4f505152535455565758595a6162636465666768696a6b6c6d6e6f707172737475767778797a303132333435363738392b2fa264697066735822122015be019e14198371fbaea30b26224052ba95b63f5d127a1e3ec9225429c4f49364736f6c634300080100333c73766720786d6c6e733d27687474703a2f2f7777772e77332e6f72672f323030302f73766727207072657365727665417370656374526174696f3d27784d696e594d696e206d656574272076696577426f783d273020302033353020333530273e3c7374796c653e2e62617365207b2066696c6c3a2077686974653b20666f6e742d66616d696c793a2073657269663b20666f6e742d73697a653a20323470783b207d3c2f7374796c653e3c726563742077696474683d273130302527206865696768743d2731303025272066696c6c3d27626c61636b27202f3e3c7465787420783d273530252720793d273530252720636c6173733d27626173652720646f6d696e616e742d626173656c696e653d276d6964646c652720746578742d616e63686f723d276d6964646c65273e",
  "linkReferences": {},
  "deployedLinkReferences": {}
}